{
    "contractName": "AyoBank",
    "abi": [
        {
            "inputs": [],
            "stateMutability": "nonpayable",
            "type": "constructor"
        },
        {
            "anonymous": false,
            "inputs": [
                {
                    "indexed": false,
                    "internalType": "address",
                    "name": "accountAddress",
                    "type": "address"
                },
                {
                    "indexed": false,
                    "internalType": "uint256",
                    "name": "amount",
                    "type": "uint256"
                }
            ],
            "name": "LogDepositMade",
            "type": "event"
        },
        {
            "inputs": [
                {
                    "internalType": "address",
                    "name": "recipient",
                    "type": "address"
                }
            ],
            "name": "balance",
            "outputs": [
                {
                    "internalType": "uint256",
                    "name": "",
                    "type": "uint256"
                }
            ],
            "stateMutability": "view",
            "type": "function"
        },
        {
            "inputs": [
                {
                    "internalType": "uint256",
                    "name": "amount",
                    "type": "uint256"
                },
                {
                    "internalType": "address",
                    "name": "recipient",
                    "type": "address"
                }
            ],
            "name": "deposit",
            "outputs": [
                {
                    "internalType": "uint256",
                    "name": "",
                    "type": "uint256"
                }
            ],
            "stateMutability": "payable",
            "type": "function"
        },
        {
            "inputs": [
                {
                    "internalType": "uint256",
                    "name": "amount",
                    "type": "uint256"
                },
                {
                    "internalType": "address",
                    "name": "_user",
                    "type": "address"
                }
            ],
            "name": "enroll",
            "outputs": [
                {
                    "internalType": "uint256",
                    "name": "",
                    "type": "uint256"
                }
            ],
            "stateMutability": "nonpayable",
            "type": "function"
        },
        {
            "inputs": [],
            "name": "owner",
            "outputs": [
                {
                    "internalType": "address",
                    "name": "",
                    "type": "address"
                }
            ],
            "stateMutability": "view",
            "type": "function"
        },
        {
            "inputs": [
                {
                    "internalType": "uint256",
                    "name": "withdrawAmount",
                    "type": "uint256"
                },
                {
                    "internalType": "address",
                    "name": "recipient",
                    "type": "address"
                }
            ],
            "name": "withdraw",
            "outputs": [
                {
                    "internalType": "uint256",
                    "name": "",
                    "type": "uint256"
                }
            ],
            "stateMutability": "payable",
            "type": "function"
        }
    ],
    "bytecode": "608060405234801561001057600080fd5b50600180546001600160a01b03191633179055610371806100326000396000f3fe6080604052600436106100495760003560e01c8062f714ce1461004e5780636e553f65146100745780638da5cb5b14610087578063aac6df7e146100bf578063e3d670d7146100df575b600080fd5b61006161005c3660046102ca565b610115565b6040519081526020015b60405180910390f35b6100616100823660046102ca565b610185565b34801561009357600080fd5b506001546100a7906001600160a01b031681565b6040516001600160a01b03909116815260200161006b565b3480156100cb57600080fd5b506100616100da3660046102ca565b610214565b3480156100eb57600080fd5b506100616100fa3660046102a8565b6001600160a01b031660009081526020819052604090205490565b6001600160a01b03811660009081526020819052604081205483111561013a57600080fd5b6001600160a01b0382166000908152602081905260408120805485929061016290849061030e565b9091555050506001600160a01b0316600090815260208190526040902054919050565b6001600160a01b0381166000908152602081905260408120805484919083906101af9084906102f6565b9091555050604080516001600160a01b0384168152602081018590527fa8126f7572bb1fdeae5b5aa9ec126438b91f658a07873f009d041ae690f3a193910160405180910390a1506001600160a01b0316600090815260208190526040902054919050565b6001600160a01b03811660009081526020819052604081208390556103e883101561027c5760405162461bcd60e51b81526020600482015260146024820152737061796d656e74206d757374206265206d61646560601b604482015260640160405180910390fd5b506001600160a01b031631919050565b80356001600160a01b03811681146102a357600080fd5b919050565b6000602082840312156102ba57600080fd5b6102c38261028c565b9392505050565b600080604083850312156102dd57600080fd5b823591506102ed6020840161028c565b90509250929050565b6000821982111561030957610309610325565b500190565b60008282101561032057610320610325565b500390565b634e487b7160e01b600052601160045260246000fdfea2646970667358221220cd88b7a7cdf3d2d0938b7af1d9e49811a24f829eb57c7fe729da1b32f0ff947964736f6c63430008070033",
    "sourcePath": "/home/hay-sharptech/ayoBank/contracts/afriBank.sol",
    "compiler": {
        "name": "solc",
        "version": "0.8.7+commit.e28d00a7"
    },
    "functionHashes": {
        "balance(address)": "e3d670d7",
        "deposit(uint256,address)": "6e553f65",
        "enroll(uint256,address)": "aac6df7e",
        "owner()": "8da5cb5b",
        "withdraw(uint256,address)": "00f714ce"
    },
    "gasEstimates": {
        "creation": {
            "codeDepositCost": "176200",
            "executionCost": "24455",
            "totalCost": "200655"
        },
        "external": {
            "balance(address)": "2595",
            "deposit(uint256,address)": "28290",
            "enroll(uint256,address)": "25271",
            "owner()": "2359",
            "withdraw(uint256,address)": "29129"
        }
    }
}